{
    "_format": "hh-sol-artifact-1",
    "contractName": "CertificateNFT",
    "sourceName": "contracts/CertificateNFT.sol",
    "abi": [
        {
            "inputs": [
                {
                    "internalType": "address",
                    "name": "initialOwner",
                    "type": "address"
                }
            ],
            "stateMutability": "nonpayable",
            "type": "constructor"
        },
        {
            "inputs": [
                {
                    "internalType": "address",
                    "name": "sender",
                    "type": "address"
                },
                {
                    "internalType": "uint256",
                    "name": "tokenId",
                    "type": "uint256"
                },
                {
                    "internalType": "address",
                    "name": "owner",
                    "type": "address"
                }
            ],
            "name": "ERC721IncorrectOwner",
            "type": "error"
        },
        {
            "inputs": [
                {
                    "internalType": "address",
                    "name": "operator",
                    "type": "address"
                },
                {
                    "internalType": "uint256",
                    "name": "tokenId",
                    "type": "uint256"
                }
            ],
            "name": "ERC721InsufficientApproval",
            "type": "error"
        },
        {
            "inputs": [
                {
                    "internalType": "address",
                    "name": "approver",
                    "type": "address"
                }
            ],
            "name": "ERC721InvalidApprover",
            "type": "error"
        },
        {
            "inputs": [
                {
                    "internalType": "address",
                    "name": "operator",
                    "type": "address"
                }
            ],
            "name": "ERC721InvalidOperator",
            "type": "error"
        },
        {
            "inputs": [
                {
                    "internalType": "address",
                    "name": "owner",
                    "type": "address"
                }
            ],
            "name": "ERC721InvalidOwner",
            "type": "error"
        },
        {
            "inputs": [
                {
                    "internalType": "address",
                    "name": "receiver",
                    "type": "address"
                }
            ],
            "name": "ERC721InvalidReceiver",
            "type": "error"
        },
        {
            "inputs": [
                {
                    "internalType": "address",
                    "name": "sender",
                    "type": "address"
                }
            ],
            "name": "ERC721InvalidSender",
            "type": "error"
        },
        {
            "inputs": [
                {
                    "internalType": "uint256",
                    "name": "tokenId",
                    "type": "uint256"
                }
            ],
            "name": "ERC721NonexistentToken",
            "type": "error"
        },
        {
            "inputs": [
                {
                    "internalType": "address",
                    "name": "owner",
                    "type": "address"
                }
            ],
            "name": "OwnableInvalidOwner",
            "type": "error"
        },
        {
            "inputs": [
                {
                    "internalType": "address",
                    "name": "account",
                    "type": "address"
                }
            ],
            "name": "OwnableUnauthorizedAccount",
            "type": "error"
        },
        {
            "anonymous": false,
            "inputs": [
                {
                    "indexed": true,
                    "internalType": "address",
                    "name": "owner",
                    "type": "address"
                },
                {
                    "indexed": true,
                    "internalType": "address",
                    "name": "approved",
                    "type": "address"
                },
                {
                    "indexed": true,
                    "internalType": "uint256",
                    "name": "tokenId",
                    "type": "uint256"
                }
            ],
            "name": "Approval",
            "type": "event"
        },
        {
            "anonymous": false,
            "inputs": [
                {
                    "indexed": true,
                    "internalType": "address",
                    "name": "owner",
                    "type": "address"
                },
                {
                    "indexed": true,
                    "internalType": "address",
                    "name": "operator",
                    "type": "address"
                },
                {
                    "indexed": false,
                    "internalType": "bool",
                    "name": "approved",
                    "type": "bool"
                }
            ],
            "name": "ApprovalForAll",
            "type": "event"
        },
        {
            "anonymous": false,
            "inputs": [
                {
                    "indexed": false,
                    "internalType": "uint256",
                    "name": "_fromTokenId",
                    "type": "uint256"
                },
                {
                    "indexed": false,
                    "internalType": "uint256",
                    "name": "_toTokenId",
                    "type": "uint256"
                }
            ],
            "name": "BatchMetadataUpdate",
            "type": "event"
        },
        {
            "anonymous": false,
            "inputs": [
                {
                    "indexed": false,
                    "internalType": "uint256",
                    "name": "_tokenId",
                    "type": "uint256"
                }
            ],
            "name": "MetadataUpdate",
            "type": "event"
        },
        {
            "anonymous": false,
            "inputs": [
                {
                    "indexed": true,
                    "internalType": "address",
                    "name": "previousOwner",
                    "type": "address"
                },
                {
                    "indexed": true,
                    "internalType": "address",
                    "name": "newOwner",
                    "type": "address"
                }
            ],
            "name": "OwnershipTransferred",
            "type": "event"
        },
        {
            "anonymous": false,
            "inputs": [
                {
                    "indexed": true,
                    "internalType": "address",
                    "name": "from",
                    "type": "address"
                },
                {
                    "indexed": true,
                    "internalType": "address",
                    "name": "to",
                    "type": "address"
                },
                {
                    "indexed": true,
                    "internalType": "uint256",
                    "name": "tokenId",
                    "type": "uint256"
                }
            ],
            "name": "Transfer",
            "type": "event"
        },
        {
            "inputs": [
                {
                    "internalType": "address",
                    "name": "to",
                    "type": "address"
                },
                {
                    "internalType": "uint256",
                    "name": "tokenId",
                    "type": "uint256"
                }
            ],
            "name": "approve",
            "outputs": [],
            "stateMutability": "nonpayable",
            "type": "function"
        },
        {
            "inputs": [
                {
                    "internalType": "address",
                    "name": "owner",
                    "type": "address"
                }
            ],
            "name": "balanceOf",
            "outputs": [
                {
                    "internalType": "uint256",
                    "name": "",
                    "type": "uint256"
                }
            ],
            "stateMutability": "view",
            "type": "function"
        },
        {
            "inputs": [
                {
                    "internalType": "uint256",
                    "name": "tokenId",
                    "type": "uint256"
                }
            ],
            "name": "getApproved",
            "outputs": [
                {
                    "internalType": "address",
                    "name": "",
                    "type": "address"
                }
            ],
            "stateMutability": "view",
            "type": "function"
        },
        {
            "inputs": [
                {
                    "internalType": "address",
                    "name": "owner",
                    "type": "address"
                },
                {
                    "internalType": "address",
                    "name": "operator",
                    "type": "address"
                }
            ],
            "name": "isApprovedForAll",
            "outputs": [
                {
                    "internalType": "bool",
                    "name": "",
                    "type": "bool"
                }
            ],
            "stateMutability": "view",
            "type": "function"
        },
        {
            "inputs": [
                {
                    "internalType": "address",
                    "name": "recipient",
                    "type": "address"
                },
                {
                    "internalType": "string",
                    "name": "tokenURI",
                    "type": "string"
                },
                {
                    "internalType": "string",
                    "name": "certificateHash",
                    "type": "string"
                }
            ],
            "name": "issueCertificate",
            "outputs": [],
            "stateMutability": "nonpayable",
            "type": "function"
        },
        {
            "inputs": [],
            "name": "name",
            "outputs": [
                {
                    "internalType": "string",
                    "name": "",
                    "type": "string"
                }
            ],
            "stateMutability": "view",
            "type": "function"
        },
        {
            "inputs": [],
            "name": "owner",
            "outputs": [
                {
                    "internalType": "address",
                    "name": "",
                    "type": "address"
                }
            ],
            "stateMutability": "view",
            "type": "function"
        },
        {
            "inputs": [
                {
                    "internalType": "uint256",
                    "name": "tokenId",
                    "type": "uint256"
                }
            ],
            "name": "ownerOf",
            "outputs": [
                {
                    "internalType": "address",
                    "name": "",
                    "type": "address"
                }
            ],
            "stateMutability": "view",
            "type": "function"
        },
        {
            "inputs": [],
            "name": "renounceOwnership",
            "outputs": [],
            "stateMutability": "nonpayable",
            "type": "function"
        },
        {
            "inputs": [
                {
                    "internalType": "address",
                    "name": "from",
                    "type": "address"
                },
                {
                    "internalType": "address",
                    "name": "to",
                    "type": "address"
                },
                {
                    "internalType": "uint256",
                    "name": "tokenId",
                    "type": "uint256"
                }
            ],
            "name": "safeTransferFrom",
            "outputs": [],
            "stateMutability": "nonpayable",
            "type": "function"
        },
        {
            "inputs": [
                {
                    "internalType": "address",
                    "name": "from",
                    "type": "address"
                },
                {
                    "internalType": "address",
                    "name": "to",
                    "type": "address"
                },
                {
                    "internalType": "uint256",
                    "name": "tokenId",
                    "type": "uint256"
                },
                {
                    "internalType": "bytes",
                    "name": "data",
                    "type": "bytes"
                }
            ],
            "name": "safeTransferFrom",
            "outputs": [],
            "stateMutability": "nonpayable",
            "type": "function"
        },
        {
            "inputs": [
                {
                    "internalType": "address",
                    "name": "operator",
                    "type": "address"
                },
                {
                    "internalType": "bool",
                    "name": "approved",
                    "type": "bool"
                }
            ],
            "name": "setApprovalForAll",
            "outputs": [],
            "stateMutability": "nonpayable",
            "type": "function"
        },
        {
            "inputs": [
                {
                    "internalType": "bytes4",
                    "name": "interfaceId",
                    "type": "bytes4"
                }
            ],
            "name": "supportsInterface",
            "outputs": [
                {
                    "internalType": "bool",
                    "name": "",
                    "type": "bool"
                }
            ],
            "stateMutability": "view",
            "type": "function"
        },
        {
            "inputs": [],
            "name": "symbol",
            "outputs": [
                {
                    "internalType": "string",
                    "name": "",
                    "type": "string"
                }
            ],
            "stateMutability": "view",
            "type": "function"
        },
        {
            "inputs": [
                {
                    "internalType": "uint256",
                    "name": "tokenId",
                    "type": "uint256"
                }
            ],
            "name": "tokenURI",
            "outputs": [
                {
                    "internalType": "string",
                    "name": "",
                    "type": "string"
                }
            ],
            "stateMutability": "view",
            "type": "function"
        },
        {
            "inputs": [
                {
                    "internalType": "address",
                    "name": "from",
                    "type": "address"
                },
                {
                    "internalType": "address",
                    "name": "to",
                    "type": "address"
                },
                {
                    "internalType": "uint256",
                    "name": "tokenId",
                    "type": "uint256"
                }
            ],
            "name": "transferFrom",
            "outputs": [],
            "stateMutability": "nonpayable",
            "type": "function"
        },
        {
            "inputs": [
                {
                    "internalType": "address",
                    "name": "newOwner",
                    "type": "address"
                }
            ],
            "name": "transferOwnership",
            "outputs": [],
            "stateMutability": "nonpayable",
            "type": "function"
        }
    ],
    "bytecode": "0x60806040523480156200001157600080fd5b5060405162002dd538038062002dd5833981810160405281019062000037919062000288565b806040518060400160405280600e81526020017f43657274696669636174654e46540000000000000000000000000000000000008152506040518060400160405280600481526020017f434e4654000000000000000000000000000000000000000000000000000000008152508160009081620000b5919062000534565b508060019081620000c7919062000534565b505050600073ffffffffffffffffffffffffffffffffffffffff168173ffffffffffffffffffffffffffffffffffffffff16036200013f5760006040517f1e4fbdf70000000000000000000000000000000000000000000000000000000081526004016200013691906200062c565b60405180910390fd5b62000150816200015860201b60201c565b505062000649565b6000600760009054906101000a900473ffffffffffffffffffffffffffffffffffffffff16905081600760006101000a81548173ffffffffffffffffffffffffffffffffffffffff021916908373ffffffffffffffffffffffffffffffffffffffff1602179055508173ffffffffffffffffffffffffffffffffffffffff168173ffffffffffffffffffffffffffffffffffffffff167f8be0079c531659141344cd1fd0a4f28419497f9722a3daafe3b4186f6b6457e060405160405180910390a35050565b600080fd5b600073ffffffffffffffffffffffffffffffffffffffff82169050919050565b6000620002508262000223565b9050919050565b620002628162000243565b81146200026e57600080fd5b50565b600081519050620002828162000257565b92915050565b600060208284031215620002a157620002a06200021e565b5b6000620002b18482850162000271565b91505092915050565b600081519050919050565b7f4e487b7100000000000000000000000000000000000000000000000000000000600052604160045260246000fd5b7f4e487b7100000000000000000000000000000000000000000000000000000000600052602260045260246000fd5b600060028204905060018216806200033c57607f821691505b602082108103620003525762000351620002f4565b5b50919050565b60008190508160005260206000209050919050565b60006020601f8301049050919050565b600082821b905092915050565b600060088302620003bc7fffffffffffffffffffffffffffffffffffffffffffffffffffffffffffffffff826200037d565b620003c886836200037d565b95508019841693508086168417925050509392505050565b6000819050919050565b6000819050919050565b6000620004156200040f6200040984620003e0565b620003ea565b620003e0565b9050919050565b6000819050919050565b6200043183620003f4565b6200044962000440826200041c565b8484546200038a565b825550505050565b600090565b6200046062000451565b6200046d81848462000426565b505050565b5b8181101562000495576200048960008262000456565b60018101905062000473565b5050565b601f821115620004e457620004ae8162000358565b620004b9846200036d565b81016020851015620004c9578190505b620004e1620004d8856200036d565b83018262000472565b50505b505050565b600082821c905092915050565b60006200050960001984600802620004e9565b1980831691505092915050565b6000620005248383620004f6565b9150826002028217905092915050565b6200053f82620002ba565b67ffffffffffffffff8111156200055b576200055a620002c5565b5b62000567825462000323565b6200057482828562000499565b600060209050601f831160018114620005ac576000841562000597578287015190505b620005a3858262000516565b86555062000613565b601f198416620005bc8662000358565b60005b82811015620005e657848901518255600182019150602085019450602081019050620005bf565b8683101562000606578489015162000602601f891682620004f6565b8355505b6001600288020188555050505b505050505050565b620006268162000243565b82525050565b60006020820190506200064360008301846200061b565b92915050565b61277c80620006596000396000f3fe608060405234801561001057600080fd5b506004361061010b5760003560e01c8063715018a6116100a2578063b88d4fde11610071578063b88d4fde146102a4578063c87b56dd146102c0578063e985e9c5146102f0578063e98ac4d814610320578063f2fde38b1461033c5761010b565b8063715018a6146102425780638da5cb5b1461024c57806395d89b411461026a578063a22cb465146102885761010b565b806323b872dd116100de57806323b872dd146101aa57806342842e0e146101c65780636352211e146101e257806370a08231146102125761010b565b806301ffc9a71461011057806306fdde0314610140578063081812fc1461015e578063095ea7b31461018e575b600080fd5b61012a60048036038101906101259190611b22565b610358565b6040516101379190611b6a565b60405180910390f35b6101486103b9565b6040516101559190611c15565b60405180910390f35b61017860048036038101906101739190611c6d565b61044b565b6040516101859190611cdb565b60405180910390f35b6101a860048036038101906101a39190611d22565b610467565b005b6101c460048036038101906101bf9190611d62565b61047d565b005b6101e060048036038101906101db9190611d62565b61057f565b005b6101fc60048036038101906101f79190611c6d565b61059f565b6040516102099190611cdb565b60405180910390f35b61022c60048036038101906102279190611db5565b6105b1565b6040516102399190611df1565b60405180910390f35b61024a61066b565b005b61025461067f565b6040516102619190611cdb565b60405180910390f35b6102726106a9565b60405161027f9190611c15565b60405180910390f35b6102a2600480360381019061029d9190611e38565b61073b565b005b6102be60048036038101906102b99190611fad565b610751565b005b6102da60048036038101906102d59190611c6d565b610776565b6040516102e79190611c15565b60405180910390f35b61030a60048036038101906103059190612030565b610889565b6040516103179190611b6a565b60405180910390f35b61033a60048036038101906103359190612111565b61091d565b005b61035660048036038101906103519190611db5565b610a01565b005b6000634906490660e01b7bffffffffffffffffffffffffffffffffffffffffffffffffffffffff1916827bffffffffffffffffffffffffffffffffffffffffffffffffffffffff191614806103b257506103b182610a87565b5b9050919050565b6060600080546103c8906121cb565b80601f01602080910402602001604051908101604052809291908181526020018280546103f4906121cb565b80156104415780601f1061041657610100808354040283529160200191610441565b820191906000526020600020905b81548152906001019060200180831161042457829003601f168201915b5050505050905090565b600061045682610b69565b5061046082610bf1565b9050919050565b6104798282610474610c2e565b610c36565b5050565b600073ffffffffffffffffffffffffffffffffffffffff168273ffffffffffffffffffffffffffffffffffffffff16036104ef5760006040517f64a0ae920000000000000000000000000000000000000000000000000000000081526004016104e69190611cdb565b60405180910390fd5b600061050383836104fe610c2e565b610c48565b90508373ffffffffffffffffffffffffffffffffffffffff168173ffffffffffffffffffffffffffffffffffffffff1614610579578382826040517f64283d7b000000000000000000000000000000000000000000000000000000008152600401610570939291906121fc565b60405180910390fd5b50505050565b61059a83838360405180602001604052806000815250610751565b505050565b60006105aa82610b69565b9050919050565b60008073ffffffffffffffffffffffffffffffffffffffff168273ffffffffffffffffffffffffffffffffffffffff16036106245760006040517f89c62b6400000000000000000000000000000000000000000000000000000000815260040161061b9190611cdb565b60405180910390fd5b600360008373ffffffffffffffffffffffffffffffffffffffff1673ffffffffffffffffffffffffffffffffffffffff168152602001908152602001600020549050919050565b610673610e62565b61067d6000610ee9565b565b6000600760009054906101000a900473ffffffffffffffffffffffffffffffffffffffff16905090565b6060600180546106b8906121cb565b80601f01602080910402602001604051908101604052809291908181526020018280546106e4906121cb565b80156107315780601f1061070657610100808354040283529160200191610731565b820191906000526020600020905b81548152906001019060200180831161071457829003601f168201915b5050505050905090565b61074d610746610c2e565b8383610faf565b5050565b61075c84848461047d565b610770610767610c2e565b8585858561111e565b50505050565b606061078182610b69565b5060006006600084815260200190815260200160002080546107a2906121cb565b80601f01602080910402602001604051908101604052809291908181526020018280546107ce906121cb565b801561081b5780601f106107f05761010080835404028352916020019161081b565b820191906000526020600020905b8154815290600101906020018083116107fe57829003601f168201915b50505050509050600061082c6112cf565b90506000815103610841578192505050610884565b60008251111561087657808260405160200161085e92919061226f565b60405160208183030381529060405292505050610884565b61087f846112e6565b925050505b919050565b6000600560008473ffffffffffffffffffffffffffffffffffffffff1673ffffffffffffffffffffffffffffffffffffffff16815260200190815260200160002060008373ffffffffffffffffffffffffffffffffffffffff1673ffffffffffffffffffffffffffffffffffffffff16815260200190815260200160002060009054906101000a900460ff16905092915050565b610925610e62565b6009816040516109359190612293565b908152602001604051809103902060009054906101000a900460ff1615610991576040517f08c379a0000000000000000000000000000000000000000000000000000000008152600401610988906122f6565b60405180910390fd5b600860008154809291906109a490612345565b9190505550600060085490506109ba848261134f565b6109c48184611448565b60016009836040516109d69190612293565b908152602001604051809103902060006101000a81548160ff02191690831515021790555050505050565b610a09610e62565b600073ffffffffffffffffffffffffffffffffffffffff168173ffffffffffffffffffffffffffffffffffffffff1603610a7b5760006040517f1e4fbdf7000000000000000000000000000000000000000000000000000000008152600401610a729190611cdb565b60405180910390fd5b610a8481610ee9565b50565b60007f80ac58cd000000000000000000000000000000000000000000000000000000007bffffffffffffffffffffffffffffffffffffffffffffffffffffffff1916827bffffffffffffffffffffffffffffffffffffffffffffffffffffffff19161480610b5257507f5b5e139f000000000000000000000000000000000000000000000000000000007bffffffffffffffffffffffffffffffffffffffffffffffffffffffff1916827bffffffffffffffffffffffffffffffffffffffffffffffffffffffff1916145b80610b625750610b61826114a4565b5b9050919050565b600080610b758361150e565b9050600073ffffffffffffffffffffffffffffffffffffffff168173ffffffffffffffffffffffffffffffffffffffff1603610be857826040517f7e273289000000000000000000000000000000000000000000000000000000008152600401610bdf9190611df1565b60405180910390fd5b80915050919050565b60006004600083815260200190815260200160002060009054906101000a900473ffffffffffffffffffffffffffffffffffffffff169050919050565b600033905090565b610c43838383600161154b565b505050565b600080610c548461150e565b9050600073ffffffffffffffffffffffffffffffffffffffff168373ffffffffffffffffffffffffffffffffffffffff1614610c9657610c95818486611710565b5b600073ffffffffffffffffffffffffffffffffffffffff168173ffffffffffffffffffffffffffffffffffffffff1614610d2757610cd860008560008061154b565b6001600360008373ffffffffffffffffffffffffffffffffffffffff1673ffffffffffffffffffffffffffffffffffffffff168152602001908152602001600020600082825403925050819055505b600073ffffffffffffffffffffffffffffffffffffffff168573ffffffffffffffffffffffffffffffffffffffff1614610daa576001600360008773ffffffffffffffffffffffffffffffffffffffff1673ffffffffffffffffffffffffffffffffffffffff168152602001908152602001600020600082825401925050819055505b846002600086815260200190815260200160002060006101000a81548173ffffffffffffffffffffffffffffffffffffffff021916908373ffffffffffffffffffffffffffffffffffffffff160217905550838573ffffffffffffffffffffffffffffffffffffffff168273ffffffffffffffffffffffffffffffffffffffff167fddf252ad1be2c89b69c2b068fc378daa952ba7f163c4a11628f55a4df523b3ef60405160405180910390a4809150509392505050565b610e6a610c2e565b73ffffffffffffffffffffffffffffffffffffffff16610e8861067f565b73ffffffffffffffffffffffffffffffffffffffff1614610ee757610eab610c2e565b6040517f118cdaa7000000000000000000000000000000000000000000000000000000008152600401610ede9190611cdb565b60405180910390fd5b565b6000600760009054906101000a900473ffffffffffffffffffffffffffffffffffffffff16905081600760006101000a81548173ffffffffffffffffffffffffffffffffffffffff021916908373ffffffffffffffffffffffffffffffffffffffff1602179055508173ffffffffffffffffffffffffffffffffffffffff168173ffffffffffffffffffffffffffffffffffffffff167f8be0079c531659141344cd1fd0a4f28419497f9722a3daafe3b4186f6b6457e060405160405180910390a35050565b600073ffffffffffffffffffffffffffffffffffffffff168273ffffffffffffffffffffffffffffffffffffffff160361102057816040517f5b08ba180000000000000000000000000000000000000000000000000000000081526004016110179190611cdb565b60405180910390fd5b80600560008573ffffffffffffffffffffffffffffffffffffffff1673ffffffffffffffffffffffffffffffffffffffff16815260200190815260200160002060008473ffffffffffffffffffffffffffffffffffffffff1673ffffffffffffffffffffffffffffffffffffffff16815260200190815260200160002060006101000a81548160ff0219169083151502179055508173ffffffffffffffffffffffffffffffffffffffff168373ffffffffffffffffffffffffffffffffffffffff167f17307eab39ab6107e8899845ad3d59bd9653f200f220920489ca2b5937696c31836040516111119190611b6a565b60405180910390a3505050565b60008373ffffffffffffffffffffffffffffffffffffffff163b11156112c8578273ffffffffffffffffffffffffffffffffffffffff1663150b7a02868685856040518563ffffffff1660e01b815260040161117d94939291906123e2565b6020604051808303816000875af19250505080156111b957506040513d601f19601f820116820180604052508101906111b69190612443565b60015b61123d573d80600081146111e9576040519150601f19603f3d011682016040523d82523d6000602084013e6111ee565b606091505b50600081510361123557836040517f64a0ae9200000000000000000000000000000000000000000000000000000000815260040161122c9190611cdb565b60405180910390fd5b805181602001fd5b63150b7a0260e01b7bffffffffffffffffffffffffffffffffffffffffffffffffffffffff1916817bffffffffffffffffffffffffffffffffffffffffffffffffffffffff1916146112c657836040517f64a0ae920000000000000000000000000000000000000000000000000000000081526004016112bd9190611cdb565b60405180910390fd5b505b5050505050565b606060405180602001604052806000815250905090565b60606112f182610b69565b5060006112fc6112cf565b9050600081511161131c5760405180602001604052806000815250611347565b80611326846117d4565b60405160200161133792919061226f565b6040516020818303038152906040525b915050919050565b600073ffffffffffffffffffffffffffffffffffffffff168273ffffffffffffffffffffffffffffffffffffffff16036113c15760006040517f64a0ae920000000000000000000000000000000000000000000000000000000081526004016113b89190611cdb565b60405180910390fd5b60006113cf83836000610c48565b9050600073ffffffffffffffffffffffffffffffffffffffff168173ffffffffffffffffffffffffffffffffffffffff16146114435760006040517f73c6ac6e00000000000000000000000000000000000000000000000000000000815260040161143a9190611cdb565b60405180910390fd5b505050565b80600660008481526020019081526020016000209081611468919061261c565b507ff8e1a15aba9398e019f0b49df1a4fde98ee17ae345cb5f6b5e2c27f5033e8ce7826040516114989190611df1565b60405180910390a15050565b60007f01ffc9a7000000000000000000000000000000000000000000000000000000007bffffffffffffffffffffffffffffffffffffffffffffffffffffffff1916827bffffffffffffffffffffffffffffffffffffffffffffffffffffffff1916149050919050565b60006002600083815260200190815260200160002060009054906101000a900473ffffffffffffffffffffffffffffffffffffffff169050919050565b80806115845750600073ffffffffffffffffffffffffffffffffffffffff168273ffffffffffffffffffffffffffffffffffffffff1614155b156116b857600061159484610b69565b9050600073ffffffffffffffffffffffffffffffffffffffff168373ffffffffffffffffffffffffffffffffffffffff16141580156115ff57508273ffffffffffffffffffffffffffffffffffffffff168173ffffffffffffffffffffffffffffffffffffffff1614155b801561161257506116108184610889565b155b1561165457826040517fa9fbf51f00000000000000000000000000000000000000000000000000000000815260040161164b9190611cdb565b60405180910390fd5b81156116b657838573ffffffffffffffffffffffffffffffffffffffff168273ffffffffffffffffffffffffffffffffffffffff167f8c5be1e5ebec7d5bd14f71427d1e84f3dd0314c0f7b2291e5b200ac8c7c3b92560405160405180910390a45b505b836004600085815260200190815260200160002060006101000a81548173ffffffffffffffffffffffffffffffffffffffff021916908373ffffffffffffffffffffffffffffffffffffffff16021790555050505050565b61171b8383836118a2565b6117cf57600073ffffffffffffffffffffffffffffffffffffffff168373ffffffffffffffffffffffffffffffffffffffff160361179057806040517f7e2732890000000000000000000000000000000000000000000000000000000081526004016117879190611df1565b60405180910390fd5b81816040517f177e802f0000000000000000000000000000000000000000000000000000000081526004016117c69291906126ee565b60405180910390fd5b505050565b6060600060016117e384611963565b01905060008167ffffffffffffffff81111561180257611801611e82565b5b6040519080825280601f01601f1916602001820160405280156118345781602001600182028036833780820191505090505b509050600082602001820190505b600115611897578080600190039150507f3031323334353637383961626364656600000000000000000000000000000000600a86061a8153600a858161188b5761188a612717565b5b04945060008503611842575b819350505050919050565b60008073ffffffffffffffffffffffffffffffffffffffff168373ffffffffffffffffffffffffffffffffffffffff161415801561195a57508273ffffffffffffffffffffffffffffffffffffffff168473ffffffffffffffffffffffffffffffffffffffff16148061191b575061191a8484610889565b5b8061195957508273ffffffffffffffffffffffffffffffffffffffff1661194183610bf1565b73ffffffffffffffffffffffffffffffffffffffff16145b5b90509392505050565b600080600090507a184f03e93ff9f4daa797ed6e38ed64bf6a1f01000000000000000083106119c1577a184f03e93ff9f4daa797ed6e38ed64bf6a1f01000000000000000083816119b7576119b6612717565b5b0492506040810190505b6d04ee2d6d415b85acef810000000083106119fe576d04ee2d6d415b85acef810000000083816119f4576119f3612717565b5b0492506020810190505b662386f26fc100008310611a2d57662386f26fc100008381611a2357611a22612717565b5b0492506010810190505b6305f5e1008310611a56576305f5e1008381611a4c57611a4b612717565b5b0492506008810190505b6127108310611a7b576127108381611a7157611a70612717565b5b0492506004810190505b60648310611a9e5760648381611a9457611a93612717565b5b0492506002810190505b600a8310611aad576001810190505b80915050919050565b6000604051905090565b600080fd5b600080fd5b60007fffffffff0000000000000000000000000000000000000000000000000000000082169050919050565b611aff81611aca565b8114611b0a57600080fd5b50565b600081359050611b1c81611af6565b92915050565b600060208284031215611b3857611b37611ac0565b5b6000611b4684828501611b0d565b91505092915050565b60008115159050919050565b611b6481611b4f565b82525050565b6000602082019050611b7f6000830184611b5b565b92915050565b600081519050919050565b600082825260208201905092915050565b60005b83811015611bbf578082015181840152602081019050611ba4565b60008484015250505050565b6000601f19601f8301169050919050565b6000611be782611b85565b611bf18185611b90565b9350611c01818560208601611ba1565b611c0a81611bcb565b840191505092915050565b60006020820190508181036000830152611c2f8184611bdc565b905092915050565b6000819050919050565b611c4a81611c37565b8114611c5557600080fd5b50565b600081359050611c6781611c41565b92915050565b600060208284031215611c8357611c82611ac0565b5b6000611c9184828501611c58565b91505092915050565b600073ffffffffffffffffffffffffffffffffffffffff82169050919050565b6000611cc582611c9a565b9050919050565b611cd581611cba565b82525050565b6000602082019050611cf06000830184611ccc565b92915050565b611cff81611cba565b8114611d0a57600080fd5b50565b600081359050611d1c81611cf6565b92915050565b60008060408385031215611d3957611d38611ac0565b5b6000611d4785828601611d0d565b9250506020611d5885828601611c58565b9150509250929050565b600080600060608486031215611d7b57611d7a611ac0565b5b6000611d8986828701611d0d565b9350506020611d9a86828701611d0d565b9250506040611dab86828701611c58565b9150509250925092565b600060208284031215611dcb57611dca611ac0565b5b6000611dd984828501611d0d565b91505092915050565b611deb81611c37565b82525050565b6000602082019050611e066000830184611de2565b92915050565b611e1581611b4f565b8114611e2057600080fd5b50565b600081359050611e3281611e0c565b92915050565b60008060408385031215611e4f57611e4e611ac0565b5b6000611e5d85828601611d0d565b9250506020611e6e85828601611e23565b9150509250929050565b600080fd5b600080fd5b7f4e487b7100000000000000000000000000000000000000000000000000000000600052604160045260246000fd5b611eba82611bcb565b810181811067ffffffffffffffff82111715611ed957611ed8611e82565b5b80604052505050565b6000611eec611ab6565b9050611ef88282611eb1565b919050565b600067ffffffffffffffff821115611f1857611f17611e82565b5b611f2182611bcb565b9050602081019050919050565b82818337600083830152505050565b6000611f50611f4b84611efd565b611ee2565b905082815260208101848484011115611f6c57611f6b611e7d565b5b611f77848285611f2e565b509392505050565b600082601f830112611f9457611f93611e78565b5b8135611fa4848260208601611f3d565b91505092915050565b60008060008060808587031215611fc757611fc6611ac0565b5b6000611fd587828801611d0d565b9450506020611fe687828801611d0d565b9350506040611ff787828801611c58565b925050606085013567ffffffffffffffff81111561201857612017611ac5565b5b61202487828801611f7f565b91505092959194509250565b6000806040838503121561204757612046611ac0565b5b600061205585828601611d0d565b925050602061206685828601611d0d565b9150509250929050565b600067ffffffffffffffff82111561208b5761208a611e82565b5b61209482611bcb565b9050602081019050919050565b60006120b46120af84612070565b611ee2565b9050828152602081018484840111156120d0576120cf611e7d565b5b6120db848285611f2e565b509392505050565b600082601f8301126120f8576120f7611e78565b5b81356121088482602086016120a1565b91505092915050565b60008060006060848603121561212a57612129611ac0565b5b600061213886828701611d0d565b935050602084013567ffffffffffffffff81111561215957612158611ac5565b5b612165868287016120e3565b925050604084013567ffffffffffffffff81111561218657612185611ac5565b5b612192868287016120e3565b9150509250925092565b7f4e487b7100000000000000000000000000000000000000000000000000000000600052602260045260246000fd5b600060028204905060018216806121e357607f821691505b6020821081036121f6576121f561219c565b5b50919050565b60006060820190506122116000830186611ccc565b61221e6020830185611de2565b61222b6040830184611ccc565b949350505050565b600081905092915050565b600061224982611b85565b6122538185612233565b9350612263818560208601611ba1565b80840191505092915050565b600061227b828561223e565b9150612287828461223e565b91508190509392505050565b600061229f828461223e565b915081905092915050565b7f436572746966696361746520616c726561647920697373756564000000000000600082015250565b60006122e0601a83611b90565b91506122eb826122aa565b602082019050919050565b6000602082019050818103600083015261230f816122d3565b9050919050565b7f4e487b7100000000000000000000000000000000000000000000000000000000600052601160045260246000fd5b600061235082611c37565b91507fffffffffffffffffffffffffffffffffffffffffffffffffffffffffffffffff820361238257612381612316565b5b600182019050919050565b600081519050919050565b600082825260208201905092915050565b60006123b48261238d565b6123be8185612398565b93506123ce818560208601611ba1565b6123d781611bcb565b840191505092915050565b60006080820190506123f76000830187611ccc565b6124046020830186611ccc565b6124116040830185611de2565b818103606083015261242381846123a9565b905095945050505050565b60008151905061243d81611af6565b92915050565b60006020828403121561245957612458611ac0565b5b60006124678482850161242e565b91505092915050565b60008190508160005260206000209050919050565b60006020601f8301049050919050565b600082821b905092915050565b6000600883026124d27fffffffffffffffffffffffffffffffffffffffffffffffffffffffffffffffff82612495565b6124dc8683612495565b95508019841693508086168417925050509392505050565b6000819050919050565b600061251961251461250f84611c37565b6124f4565b611c37565b9050919050565b6000819050919050565b612533836124fe565b61254761253f82612520565b8484546124a2565b825550505050565b600090565b61255c61254f565b61256781848461252a565b505050565b5b8181101561258b57612580600082612554565b60018101905061256d565b5050565b601f8211156125d0576125a181612470565b6125aa84612485565b810160208510156125b9578190505b6125cd6125c585612485565b83018261256c565b50505b505050565b600082821c905092915050565b60006125f3600019846008026125d5565b1980831691505092915050565b600061260c83836125e2565b9150826002028217905092915050565b61262582611b85565b67ffffffffffffffff81111561263e5761263d611e82565b5b61264882546121cb565b61265382828561258f565b600060209050601f8311600181146126865760008415612674578287015190505b61267e8582612600565b8655506126e6565b601f19841661269486612470565b60005b828110156126bc57848901518255600182019150602085019450602081019050612697565b868310156126d957848901516126d5601f8916826125e2565b8355505b6001600288020188555050505b505050505050565b60006040820190506127036000830185611ccc565b6127106020830184611de2565b9392505050565b7f4e487b7100000000000000000000000000000000000000000000000000000000600052601260045260246000fdfea2646970667358221220c493981b111ad5a53e27032ddc1c626273200d7ff45d4d18461e7731aad9840e64736f6c63430008150033",
    "linkReferences": {},
    "deployedLinkReferences": {}
}